{
    "_format": "hh-sol-artifact-1",
    "contractName": "ClaimHolder",
    "sourceName": "contracts/ClaimHolder.sol",
    "abi": [
        {
            "anonymous": false,
            "inputs": [
                {
                    "indexed": true,
                    "internalType": "uint256",
                    "name": "executionId",
                    "type": "uint256"
                },
                {
                    "indexed": false,
                    "internalType": "bool",
                    "name": "approved",
                    "type": "bool"
                }
            ],
            "name": "Approved",
            "type": "event"
        },
        {
            "anonymous": false,
            "inputs": [
                {
                    "indexed": true,
                    "internalType": "bytes32",
                    "name": "claimId",
                    "type": "bytes32"
                },
                {
                    "indexed": true,
                    "internalType": "uint256",
                    "name": "claimType",
                    "type": "uint256"
                },
                {
                    "indexed": false,
                    "internalType": "uint256",
                    "name": "scheme",
                    "type": "uint256"
                },
                {
                    "indexed": true,
                    "internalType": "address",
                    "name": "issuer",
                    "type": "address"
                },
                {
                    "indexed": false,
                    "internalType": "bytes",
                    "name": "signature",
                    "type": "bytes"
                },
                {
                    "indexed": false,
                    "internalType": "bytes",
                    "name": "data",
                    "type": "bytes"
                },
                {
                    "indexed": false,
                    "internalType": "string",
                    "name": "uri",
                    "type": "string"
                }
            ],
            "name": "ClaimAdded",
            "type": "event"
        },
        {
            "anonymous": false,
            "inputs": [
                {
                    "indexed": true,
                    "internalType": "bytes32",
                    "name": "claimId",
                    "type": "bytes32"
                },
                {
                    "indexed": true,
                    "internalType": "uint256",
                    "name": "claimType",
                    "type": "uint256"
                },
                {
                    "indexed": false,
                    "internalType": "uint256",
                    "name": "scheme",
                    "type": "uint256"
                },
                {
                    "indexed": true,
                    "internalType": "address",
                    "name": "issuer",
                    "type": "address"
                },
                {
                    "indexed": false,
                    "internalType": "bytes",
                    "name": "signature",
                    "type": "bytes"
                },
                {
                    "indexed": false,
                    "internalType": "bytes",
                    "name": "data",
                    "type": "bytes"
                },
                {
                    "indexed": false,
                    "internalType": "string",
                    "name": "uri",
                    "type": "string"
                }
            ],
            "name": "ClaimChanged",
            "type": "event"
        },
        {
            "anonymous": false,
            "inputs": [
                {
                    "indexed": true,
                    "internalType": "bytes32",
                    "name": "claimId",
                    "type": "bytes32"
                },
                {
                    "indexed": true,
                    "internalType": "uint256",
                    "name": "claimType",
                    "type": "uint256"
                },
                {
                    "indexed": false,
                    "internalType": "uint256",
                    "name": "scheme",
                    "type": "uint256"
                },
                {
                    "indexed": true,
                    "internalType": "address",
                    "name": "issuer",
                    "type": "address"
                },
                {
                    "indexed": false,
                    "internalType": "bytes",
                    "name": "signature",
                    "type": "bytes"
                },
                {
                    "indexed": false,
                    "internalType": "bytes",
                    "name": "data",
                    "type": "bytes"
                },
                {
                    "indexed": false,
                    "internalType": "string",
                    "name": "uri",
                    "type": "string"
                }
            ],
            "name": "ClaimRemoved",
            "type": "event"
        },
        {
            "anonymous": false,
            "inputs": [
                {
                    "indexed": true,
                    "internalType": "uint256",
                    "name": "claimRequestId",
                    "type": "uint256"
                },
                {
                    "indexed": true,
                    "internalType": "uint256",
                    "name": "claimType",
                    "type": "uint256"
                },
                {
                    "indexed": false,
                    "internalType": "uint256",
                    "name": "scheme",
                    "type": "uint256"
                },
                {
                    "indexed": true,
                    "internalType": "address",
                    "name": "issuer",
                    "type": "address"
                },
                {
                    "indexed": false,
                    "internalType": "bytes",
                    "name": "signature",
                    "type": "bytes"
                },
                {
                    "indexed": false,
                    "internalType": "bytes",
                    "name": "data",
                    "type": "bytes"
                },
                {
                    "indexed": false,
                    "internalType": "string",
                    "name": "uri",
                    "type": "string"
                }
            ],
            "name": "ClaimRequested",
            "type": "event"
        },
        {
            "anonymous": false,
            "inputs": [
                {
                    "indexed": true,
                    "internalType": "uint256",
                    "name": "executionId",
                    "type": "uint256"
                },
                {
                    "indexed": true,
                    "internalType": "address",
                    "name": "to",
                    "type": "address"
                },
                {
                    "indexed": true,
                    "internalType": "uint256",
                    "name": "value",
                    "type": "uint256"
                },
                {
                    "indexed": false,
                    "internalType": "bytes",
                    "name": "data",
                    "type": "bytes"
                }
            ],
            "name": "Executed",
            "type": "event"
        },
        {
            "anonymous": false,
            "inputs": [
                {
                    "indexed": true,
                    "internalType": "uint256",
                    "name": "executionId",
                    "type": "uint256"
                },
                {
                    "indexed": true,
                    "internalType": "address",
                    "name": "to",
                    "type": "address"
                },
                {
                    "indexed": true,
                    "internalType": "uint256",
                    "name": "value",
                    "type": "uint256"
                },
                {
                    "indexed": false,
                    "internalType": "bytes",
                    "name": "data",
                    "type": "bytes"
                }
            ],
            "name": "ExecutionFailed",
            "type": "event"
        },
        {
            "anonymous": false,
            "inputs": [
                {
                    "indexed": true,
                    "internalType": "uint256",
                    "name": "executionId",
                    "type": "uint256"
                },
                {
                    "indexed": true,
                    "internalType": "address",
                    "name": "to",
                    "type": "address"
                },
                {
                    "indexed": true,
                    "internalType": "uint256",
                    "name": "value",
                    "type": "uint256"
                },
                {
                    "indexed": false,
                    "internalType": "bytes",
                    "name": "data",
                    "type": "bytes"
                }
            ],
            "name": "ExecutionRequested",
            "type": "event"
        },
        {
            "anonymous": false,
            "inputs": [
                {
                    "indexed": true,
                    "internalType": "bytes32",
                    "name": "key",
                    "type": "bytes32"
                },
                {
                    "indexed": true,
                    "internalType": "uint256",
                    "name": "purpose",
                    "type": "uint256"
                },
                {
                    "indexed": true,
                    "internalType": "uint256",
                    "name": "keyType",
                    "type": "uint256"
                }
            ],
            "name": "KeyAdded",
            "type": "event"
        },
        {
            "anonymous": false,
            "inputs": [
                {
                    "indexed": true,
                    "internalType": "bytes32",
                    "name": "key",
                    "type": "bytes32"
                },
                {
                    "indexed": true,
                    "internalType": "uint256",
                    "name": "purpose",
                    "type": "uint256"
                },
                {
                    "indexed": true,
                    "internalType": "uint256",
                    "name": "keyType",
                    "type": "uint256"
                }
            ],
            "name": "KeyRemoved",
            "type": "event"
        },
        {
            "inputs": [
                {
                    "internalType": "uint256",
                    "name": "_claimType",
                    "type": "uint256"
                },
                {
                    "internalType": "uint256",
                    "name": "_scheme",
                    "type": "uint256"
                },
                {
                    "internalType": "address",
                    "name": "_issuer",
                    "type": "address"
                },
                {
                    "internalType": "bytes",
                    "name": "_signature",
                    "type": "bytes"
                },
                {
                    "internalType": "bytes",
                    "name": "_data",
                    "type": "bytes"
                },
                {
                    "internalType": "string",
                    "name": "_uri",
                    "type": "string"
                }
            ],
            "name": "addClaim",
            "outputs": [
                {
                    "internalType": "bytes32",
                    "name": "claimRequestId",
                    "type": "bytes32"
                }
            ],
            "stateMutability": "nonpayable",
            "type": "function"
        },
        {
            "inputs": [
                {
                    "internalType": "bytes32",
                    "name": "_key",
                    "type": "bytes32"
                },
                {
                    "internalType": "uint256",
                    "name": "_purpose",
                    "type": "uint256"
                },
                {
                    "internalType": "uint256",
                    "name": "_type",
                    "type": "uint256"
                }
            ],
            "name": "addKey",
            "outputs": [
                {
                    "internalType": "bool",
                    "name": "success",
                    "type": "bool"
                }
            ],
            "stateMutability": "nonpayable",
            "type": "function"
        },
        {
            "inputs": [
                {
                    "internalType": "uint256",
                    "name": "_id",
                    "type": "uint256"
                },
                {
                    "internalType": "bool",
                    "name": "_approve",
                    "type": "bool"
                }
            ],
            "name": "approve",
            "outputs": [
                {
                    "internalType": "bool",
                    "name": "",
                    "type": "bool"
                }
            ],
            "stateMutability": "nonpayable",
            "type": "function"
        },
        {
            "inputs": [
                {
                    "internalType": "address",
                    "name": "_to",
                    "type": "address"
                },
                {
                    "internalType": "uint256",
                    "name": "_value",
                    "type": "uint256"
                },
                {
                    "internalType": "bytes",
                    "name": "_data",
                    "type": "bytes"
                }
            ],
            "name": "execute",
            "outputs": [
                {
                    "internalType": "uint256",
                    "name": "executionId",
                    "type": "uint256"
                }
            ],
            "stateMutability": "nonpayable",
            "type": "function"
        },
        {
            "inputs": [
                {
                    "internalType": "bytes32",
                    "name": "_claimId",
                    "type": "bytes32"
                }
            ],
            "name": "getClaim",
            "outputs": [
                {
                    "internalType": "uint256",
                    "name": "claimType",
                    "type": "uint256"
                },
                {
                    "internalType": "uint256",
                    "name": "scheme",
                    "type": "uint256"
                },
                {
                    "internalType": "address",
                    "name": "issuer",
                    "type": "address"
                },
                {
                    "internalType": "bytes",
                    "name": "signature",
                    "type": "bytes"
                },
                {
                    "internalType": "bytes",
                    "name": "data",
                    "type": "bytes"
                },
                {
                    "internalType": "string",
                    "name": "uri",
                    "type": "string"
                }
            ],
            "stateMutability": "view",
            "type": "function"
        },
        {
            "inputs": [
                {
                    "internalType": "uint256",
                    "name": "_claimType",
                    "type": "uint256"
                }
            ],
            "name": "getClaimIdsByType",
            "outputs": [
                {
                    "internalType": "bytes32[]",
                    "name": "claimIds",
                    "type": "bytes32[]"
                }
            ],
            "stateMutability": "view",
            "type": "function"
        },
        {
            "inputs": [
                {
                    "internalType": "bytes32",
                    "name": "_key",
                    "type": "bytes32"
                }
            ],
            "name": "getKey",
            "outputs": [
                {
                    "internalType": "uint256",
                    "name": "purpose",
                    "type": "uint256"
                },
                {
                    "internalType": "uint256",
                    "name": "keyType",
                    "type": "uint256"
                },
                {
                    "internalType": "bytes32",
                    "name": "key",
                    "type": "bytes32"
                }
            ],
            "stateMutability": "view",
            "type": "function"
        },
        {
            "inputs": [
                {
                    "internalType": "bytes32",
                    "name": "_key",
                    "type": "bytes32"
                }
            ],
            "name": "getKeyPurpose",
            "outputs": [
                {
                    "internalType": "uint256",
                    "name": "purpose",
                    "type": "uint256"
                }
            ],
            "stateMutability": "view",
            "type": "function"
        },
        {
            "inputs": [
                {
                    "internalType": "uint256",
                    "name": "_purpose",
                    "type": "uint256"
                }
            ],
            "name": "getKeysByPurpose",
            "outputs": [
                {
                    "internalType": "bytes32[]",
                    "name": "_keys",
                    "type": "bytes32[]"
                }
            ],
            "stateMutability": "view",
            "type": "function"
        },
        {
            "inputs": [
                {
                    "internalType": "bytes32",
                    "name": "_key",
                    "type": "bytes32"
                },
                {
                    "internalType": "uint256",
                    "name": "_purpose",
                    "type": "uint256"
                }
            ],
            "name": "keyHasPurpose",
            "outputs": [
                {
                    "internalType": "bool",
                    "name": "result",
                    "type": "bool"
                }
            ],
            "stateMutability": "view",
            "type": "function"
        },
        {
            "inputs": [
                {
                    "internalType": "bytes32",
                    "name": "_claimId",
                    "type": "bytes32"
                }
            ],
            "name": "removeClaim",
            "outputs": [
                {
                    "internalType": "bool",
                    "name": "success",
                    "type": "bool"
                }
            ],
            "stateMutability": "nonpayable",
            "type": "function"
        },
        {
            "inputs": [
                {
                    "internalType": "bytes32",
                    "name": "_key",
                    "type": "bytes32"
                }
            ],
            "name": "removeKey",
            "outputs": [
                {
                    "internalType": "bool",
                    "name": "success",
                    "type": "bool"
                }
            ],
            "stateMutability": "nonpayable",
            "type": "function"
        },
        {
            "inputs": [
                {
                    "internalType": "bytes4",
                    "name": "interfaceId",
                    "type": "bytes4"
                }
            ],
            "name": "supportsInterface",
            "outputs": [
                {
                    "internalType": "bool",
                    "name": "",
                    "type": "bool"
                }
            ],
            "stateMutability": "pure",
            "type": "function"
        }
    ],
    "bytecode": "0x60806040523480156200001157600080fd5b5060003360405160200162000027919062000132565b6040516020818303038152906040528051906020012090508060016000838152602001908152602001600020600201819055506001806000838152602001908152602001600020600001819055506001806000838152602001908152602001600020600101819055506002600060018152602001908152602001600020819080600181540180825580915050600190039060005260206000200160009091909190915055600180600083815260200190815260200160002060000154827f480000bb1edad8ca1470381cc334b1917fbd51c6531f3a623ea8e0ec7e38a6e960405160405180910390a450620001b8565b6200012c62000126826200014f565b62000183565b82525050565b600062000140828462000117565b60148201915081905092915050565b60006200015c8262000163565b9050919050565b600073ffffffffffffffffffffffffffffffffffffffff82169050919050565b6000620001908262000197565b9050919050565b6000620001a482620001ab565b9050919050565b60008160601b9050919050565b61278780620001c86000396000f3fe608060405234801561001057600080fd5b50600436106100cf5760003560e01c8063747442d31161008c578063b1a34e0d11610066578063b1a34e0d14610286578063b61d27f6146102b6578063c9100bcb146102e6578063d202158d1461031b576100cf565b8063747442d3146101f6578063862642f5146102265780639010f72614610256576100cf565b806301ffc9a7146100d4578063032c1a8a1461010457806312aaac70146101345780631d38124014610166578063262b54f5146101965780634eee424a146101c6575b600080fd5b6100ee60048036038101906100e99190611993565b61034b565b6040516100fb9190611ee7565b60405180910390f35b61011e600480360381019061011991906118d3565b6103eb565b60405161012b9190612051565b60405180910390f35b61014e600480360381019061014991906118d3565b61040b565b60405161015d93929190612196565b60405180910390f35b610180600480360381019061017b9190611940565b610462565b60405161018d9190611ee7565b60405180910390f35b6101b060048036038101906101ab91906119c0565b610626565b6040516101bd9190611ec5565b60405180910390f35b6101e060048036038101906101db91906118d3565b610691565b6040516101ed9190611ee7565b60405180910390f35b610210600480360381019061020b91906119ed565b6108b4565b60405161021d9190611ee7565b60405180910390f35b610240600480360381019061023b91906118d3565b610c5d565b60405161024d9190611ee7565b60405180910390f35b610270600480360381019061026b91906119c0565b610d5f565b60405161027d9190611ec5565b60405180910390f35b6102a0600480360381019061029b9190611a2d565b610dca565b6040516102ad9190611f02565b60405180910390f35b6102d060048036038101906102cb9190611864565b6110b0565b6040516102dd9190612051565b60405180910390f35b61030060048036038101906102fb91906118d3565b6112b3565b60405161031296959493929190612120565b60405180910390f35b61033560048036038101906103309190611900565b61151d565b6040516103429190611ee7565b60405180910390f35b60006344c028fe60e01b7bffffffffffffffffffffffffffffffffffffffffffffffffffffffff1916827bffffffffffffffffffffffffffffffffffffffffffffffffffffffff191614806103e4575063714df77c60e01b7bffffffffffffffffffffffffffffffffffffffffffffffffffffffff1916827bffffffffffffffffffffffffffffffffffffffffffffffffffffffff1916145b9050919050565b600060016000838152602001908152602001600020600001549050919050565b60008060006001600085815260200190815260200160002060000154600160008681526020019081526020016000206001015460016000878152602001908152602001600020600201549250925092509193909250565b600083600160008681526020019081526020016000206002015414156104bd576040517f08c379a00000000000000000000000000000000000000000000000000000000081526004016104b490611fb1565b60405180910390fd5b3073ffffffffffffffffffffffffffffffffffffffff163373ffffffffffffffffffffffffffffffffffffffff161461056157610521336040516020016105049190611e6a565b60405160208183030381529060405280519060200120600161151d565b610560576040517f08c379a000000000000000000000000000000000000000000000000000000000815260040161055790612011565b60405180910390fd5b5b836001600086815260200190815260200160002060020181905550826001600086815260200190815260200160002060000181905550816001600086815260200190815260200160002060010181905550600260008481526020019081526020016000208490806001815401808255809150506001900390600052602060002001600090919091909150558183857f480000bb1edad8ca1470381cc334b1917fbd51c6531f3a623ea8e0ec7e38a6e960405160405180910390a4600190509392505050565b60606005600083815260200190815260200160002080548060200260200160405190810160405280929190818152602001828054801561068557602002820191906000526020600020905b815481526020019060010190808311610671575b50505050509050919050565b60003073ffffffffffffffffffffffffffffffffffffffff163373ffffffffffffffffffffffffffffffffffffffff1614610737576106f7336040516020016106da9190611e6a565b60405160208183030381529060405280519060200120600161151d565b610736576040517f08c379a000000000000000000000000000000000000000000000000000000000815260040161072d90612011565b60405180910390fd5b5b6004600083815260200190815260200160002060020160009054906101000a900473ffffffffffffffffffffffffffffffffffffffff1673ffffffffffffffffffffffffffffffffffffffff166004600084815260200190815260200160002060000154837f3cf57863a89432c61c4a27073c6ee39e8a764bff5a05aebfbcdcdc80b2e6130a60046000878152602001908152602001600020600101546004600088815260200190815260200160002060030160046000898152602001908152602001600020600401600460008a815260200190815260200160002060050160405161082694939291906120c6565b60405180910390a46004600083815260200190815260200160002060008082016000905560018201600090556002820160006101000a81549073ffffffffffffffffffffffffffffffffffffffff02191690556003820160006108899190611572565b6004820160006108999190611572565b6005820160006108a991906115b2565b505060019050919050565b60006108e7336040516020016108ca9190611e6a565b60405160208183030381529060405280519060200120600261151d565b610926576040517f08c379a000000000000000000000000000000000000000000000000000000000815260040161091d90611f91565b60405180910390fd5b827fb3932da477fe5d6c8ff2eafef050c0f3a1af18fc07121001482600f36f3715d8836040516109569190611ee7565b60405180910390a2600115158215151415610c235760016003600085815260200190815260200160002060030160006101000a81548160ff0219169083151502179055506000806003600086815260200190815260200160002060000160009054906101000a900473ffffffffffffffffffffffffffffffffffffffff1673ffffffffffffffffffffffffffffffffffffffff16600360008781526020019081526020016000206002016000604051602001610a13929190611f61565b604051602081830303815290604052604051610a2f9190611e85565b6000604051808303816000865af19150503d8060008114610a6c576040519150601f19603f3d011682016040523d82523d6000602084013e610a71565b606091505b50915091508115610b675760016003600087815260200190815260200160002060030160016101000a81548160ff02191690831515021790555060036000868152602001908152602001600020600101546003600087815260200190815260200160002060000160009054906101000a900473ffffffffffffffffffffffffffffffffffffffff1673ffffffffffffffffffffffffffffffffffffffff16867f1f920dbda597d7bf95035464170fa58d0a4b57f13a1c315ace6793b9f63688b8600360008a8152602001908152602001600020600201604051610b549190611f3f565b60405180910390a4600192505050610c57565b60036000868152602001908152602001600020600101546003600087815260200190815260200160002060000160009054906101000a900473ffffffffffffffffffffffffffffffffffffffff1673ffffffffffffffffffffffffffffffffffffffff16867fe10c49d9f7c71da23262367013434763cfdb2332267641728d25cd712c5c6a68600360008a8152602001908152602001600020600201604051610c109190611f3f565b60405180910390a4600092505050610c57565b60006003600085815260200190815260200160002060030160006101000a81548160ff021916908315150217905550600190505b92915050565b600081600160008481526020019081526020016000206002015414610cb7576040517f08c379a0000000000000000000000000000000000000000000000000000000008152600401610cae90612031565b60405180910390fd5b6001600083815260200190815260200160002060010154600160008481526020019081526020016000206000015460016000858152602001908152602001600020600201547f585a4aef50f8267a92b32412b331b20f7f8b96f2245b253b9cc50dcc621d339760405160405180910390a46001600083815260200190815260200160002060008082016000905560018201600090556002820160009055505060019050919050565b606060026000838152602001908152602001600020805480602002602001604051908101604052809291908181526020018280548015610dbe57602002820191906000526020600020905b815481526020019060010190808311610daa575b50505050509050919050565b6000808588604051602001610de0929190611e9c565b6040516020818303038152906040528051906020012090503073ffffffffffffffffffffffffffffffffffffffff163373ffffffffffffffffffffffffffffffffffffffff1614610e9c57610e5c33604051602001610e3f9190611e6a565b60405160208183030381529060405280519060200120600361151d565b610e9b576040517f08c379a0000000000000000000000000000000000000000000000000000000008152600401610e9290611fd1565b60405180910390fd5b5b8573ffffffffffffffffffffffffffffffffffffffff166004600083815260200190815260200160002060020160009054906101000a900473ffffffffffffffffffffffffffffffffffffffff1673ffffffffffffffffffffffffffffffffffffffff1614610f4057600560008981526020019081526020016000208190806001815401808255809150506001900390600052602060002001600090919091909150555b876004600083815260200190815260200160002060000181905550866004600083815260200190815260200160002060010181905550856004600083815260200190815260200160002060020160006101000a81548173ffffffffffffffffffffffffffffffffffffffff021916908373ffffffffffffffffffffffffffffffffffffffff16021790555084600460008381526020019081526020016000206003019080519060200190610ff59291906115f2565b50836004600083815260200190815260200160002060040190805190602001906110209291906115f2565b508260046000838152602001908152602001600020600501908051906020019061104b929190611678565b508573ffffffffffffffffffffffffffffffffffffffff1688827f46149b18aa084502c3f12bc75e19eda8bda8d102b82cce8474677a6d0d5f43c58a89898960405161109a949392919061206c565b60405180910390a4809150509695505050505050565b6000600360008054815260200190815260200160002060030160019054906101000a900460ff1615611117576040517f08c379a000000000000000000000000000000000000000000000000000000000815260040161110e90611ff1565b60405180910390fd5b83600360008054815260200190815260200160002060000160006101000a81548173ffffffffffffffffffffffffffffffffffffffff021916908373ffffffffffffffffffffffffffffffffffffffff1602179055508260036000805481526020019081526020016000206001018190555081600360008054815260200190815260200160002060020190805190602001906111b49291906115f2565b50828473ffffffffffffffffffffffffffffffffffffffff166000547f8afcfabcb00e47a53a8fc3e9f23ff47ee1926194bb1350dd007c50b412a6cee8856040516111ff9190611f1d565b60405180910390a46112383360405160200161121b9190611e6a565b60405160208183030381529060405280519060200120600161151d565b80611270575061126f336040516020016112529190611e6a565b60405160208183030381529060405280519060200120600261151d565b5b156112845761128260005460016108b4565b505b60008081548092919061129690612470565b919050555060016000546112aa91906122fa565b90509392505050565b6000806000606080606060046000888152602001908152602001600020600001546004600089815260200190815260200160002060010154600460008a815260200190815260200160002060020160009054906101000a900473ffffffffffffffffffffffffffffffffffffffff16600460008b8152602001908152602001600020600301600460008c8152602001908152602001600020600401600460008d81526020019081526020016000206005018280546113709061240d565b80601f016020809104026020016040519081016040528092919081815260200182805461139c9061240d565b80156113e95780601f106113be576101008083540402835291602001916113e9565b820191906000526020600020905b8154815290600101906020018083116113cc57829003601f168201915b505050505092508180546113fc9061240d565b80601f01602080910402602001604051908101604052809291908181526020018280546114289061240d565b80156114755780601f1061144a57610100808354040283529160200191611475565b820191906000526020600020905b81548152906001019060200180831161145857829003601f168201915b505050505091508080546114889061240d565b80601f01602080910402602001604051908101604052809291908181526020018280546114b49061240d565b80156115015780601f106114d657610100808354040283529160200191611501565b820191906000526020600020905b8154815290600101906020018083116114e457829003601f168201915b5050505050905095509550955095509550955091939550919395565b6000806000801b6001600086815260200190815260200160002060020154141561154b57600091505061156c565b82600160008681526020019081526020016000206000015411159050809150505b92915050565b50805461157e9061240d565b6000825580601f1061159057506115af565b601f0160209004906000526020600020908101906115ae91906116fe565b5b50565b5080546115be9061240d565b6000825580601f106115d057506115ef565b601f0160209004906000526020600020908101906115ee91906116fe565b5b50565b8280546115fe9061240d565b90600052602060002090601f0160209004810192826116205760008555611667565b82601f1061163957805160ff1916838001178555611667565b82800160010185558215611667579182015b8281111561166657825182559160200191906001019061164b565b5b50905061167491906116fe565b5090565b8280546116849061240d565b90600052602060002090601f0160209004810192826116a657600085556116ed565b82601f106116bf57805160ff19168380011785556116ed565b828001600101855582156116ed579182015b828111156116ec5782518255916020019190600101906116d1565b5b5090506116fa91906116fe565b5090565b5b808211156117175760008160009055506001016116ff565b5090565b600061172e611729846121f2565b6121cd565b90508281526020810184848401111561174a5761174961256f565b5b6117558482856123cb565b509392505050565b600061177061176b84612223565b6121cd565b90508281526020810184848401111561178c5761178b61256f565b5b6117978482856123cb565b509392505050565b6000813590506117ae816126de565b92915050565b6000813590506117c3816126f5565b92915050565b6000813590506117d88161270c565b92915050565b6000813590506117ed81612723565b92915050565b600082601f8301126118085761180761256a565b5b813561181884826020860161171b565b91505092915050565b600082601f8301126118365761183561256a565b5b813561184684826020860161175d565b91505092915050565b60008135905061185e8161273a565b92915050565b60008060006060848603121561187d5761187c612579565b5b600061188b8682870161179f565b935050602061189c8682870161184f565b925050604084013567ffffffffffffffff8111156118bd576118bc612574565b5b6118c9868287016117f3565b9150509250925092565b6000602082840312156118e9576118e8612579565b5b60006118f7848285016117c9565b91505092915050565b6000806040838503121561191757611916612579565b5b6000611925858286016117c9565b92505060206119368582860161184f565b9150509250929050565b60008060006060848603121561195957611958612579565b5b6000611967868287016117c9565b93505060206119788682870161184f565b92505060406119898682870161184f565b9150509250925092565b6000602082840312156119a9576119a8612579565b5b60006119b7848285016117de565b91505092915050565b6000602082840312156119d6576119d5612579565b5b60006119e48482850161184f565b91505092915050565b60008060408385031215611a0457611a03612579565b5b6000611a128582860161184f565b9250506020611a23858286016117b4565b9150509250929050565b60008060008060008060c08789031215611a4a57611a49612579565b5b6000611a5889828a0161184f565b9650506020611a6989828a0161184f565b9550506040611a7a89828a0161179f565b945050606087013567ffffffffffffffff811115611a9b57611a9a612574565b5b611aa789828a016117f3565b935050608087013567ffffffffffffffff811115611ac857611ac7612574565b5b611ad489828a016117f3565b92505060a087013567ffffffffffffffff811115611af557611af4612574565b5b611b0189828a01611821565b9150509295509295509295565b6000611b1a8383611bb9565b60208301905092915050565b611b2f8161232e565b82525050565b611b46611b418261232e565b6124b9565b82525050565b6000611b578261228e565b611b6181856122bc565b9350611b6c83612254565b8060005b83811015611b9d578151611b848882611b0e565b9750611b8f836122af565b925050600181019050611b70565b5085935050505092915050565b611bb381612340565b82525050565b611bc28161234c565b82525050565b611bd18161234c565b82525050565b6000611be282612299565b611bec81856122cd565b9350611bfc8185602086016123da565b611c058161257e565b840191505092915050565b6000611c1b82612299565b611c2581856122de565b9350611c358185602086016123da565b80840191505092915050565b60008154611c4e8161240d565b611c5881866122cd565b94506001821660008114611c735760018114611c8557611cb8565b60ff1983168652602086019350611cb8565b611c8e85612264565b60005b83811015611cb057815481890152600182019150602081019050611c91565b808801955050505b50505092915050565b611cca816123b9565b82525050565b6000611cdb826122a4565b611ce581856122e9565b9350611cf58185602086016123da565b611cfe8161257e565b840191505092915050565b60008154611d168161240d565b611d2081866122e9565b94506001821660008114611d3b5760018114611d4d57611d80565b60ff1983168652602086019350611d80565b611d5685612279565b60005b83811015611d7857815481890152600182019150602081019050611d59565b808801955050505b50505092915050565b6000611d96601f836122e9565b9150611da18261259c565b602082019050919050565b6000611db96012836122e9565b9150611dc4826125c5565b602082019050919050565b6000611ddc6025836122e9565b9150611de7826125ee565b604082019050919050565b6000611dff6010836122e9565b9150611e0a8261263d565b602082019050919050565b6000611e226023836122e9565b9150611e2d82612666565b604082019050919050565b6000611e45600b836122e9565b9150611e50826126b5565b602082019050919050565b611e64816123a2565b82525050565b6000611e768284611b35565b60148201915081905092915050565b6000611e918284611c10565b915081905092915050565b6000604082019050611eb16000830185611b26565b611ebe6020830184611e5b565b9392505050565b60006020820190508181036000830152611edf8184611b4c565b905092915050565b6000602082019050611efc6000830184611baa565b92915050565b6000602082019050611f176000830184611bc8565b92915050565b60006020820190508181036000830152611f378184611bd7565b905092915050565b60006020820190508181036000830152611f598184611c41565b905092915050565b60006040820190508181036000830152611f7b8185611c41565b9050611f8a6020830184611cc1565b9392505050565b60006020820190508181036000830152611faa81611d89565b9050919050565b60006020820190508181036000830152611fca81611dac565b9050919050565b60006020820190508181036000830152611fea81611dcf565b9050919050565b6000602082019050818103600083015261200a81611df2565b9050919050565b6000602082019050818103600083015261202a81611e15565b9050919050565b6000602082019050818103600083015261204a81611e38565b9050919050565b60006020820190506120666000830184611e5b565b92915050565b60006080820190506120816000830187611e5b565b81810360208301526120938186611bd7565b905081810360408301526120a78185611bd7565b905081810360608301526120bb8184611cd0565b905095945050505050565b60006080820190506120db6000830187611e5b565b81810360208301526120ed8186611c41565b905081810360408301526121018185611c41565b905081810360608301526121158184611d09565b905095945050505050565b600060c0820190506121356000830189611e5b565b6121426020830188611e5b565b61214f6040830187611b26565b81810360608301526121618186611bd7565b905081810360808301526121758185611bd7565b905081810360a08301526121898184611cd0565b9050979650505050505050565b60006060820190506121ab6000830186611e5b565b6121b86020830185611e5b565b6121c56040830184611bc8565b949350505050565b60006121d76121e8565b90506121e3828261243f565b919050565b6000604051905090565b600067ffffffffffffffff82111561220d5761220c61253b565b5b6122168261257e565b9050602081019050919050565b600067ffffffffffffffff82111561223e5761223d61253b565b5b6122478261257e565b9050602081019050919050565b6000819050602082019050919050565b60008190508160005260206000209050919050565b60008190508160005260206000209050919050565b600081519050919050565b600081519050919050565b600081519050919050565b6000602082019050919050565b600082825260208201905092915050565b600082825260208201905092915050565b600081905092915050565b600082825260208201905092915050565b6000612305826123a2565b9150612310836123a2565b925082821015612323576123226124dd565b5b828203905092915050565b600061233982612382565b9050919050565b60008115159050919050565b6000819050919050565b60007fffffffff0000000000000000000000000000000000000000000000000000000082169050919050565b600073ffffffffffffffffffffffffffffffffffffffff82169050919050565b6000819050919050565b600060ff82169050919050565b60006123c4826123ac565b9050919050565b82818337600083830152505050565b60005b838110156123f85780820151818401526020810190506123dd565b83811115612407576000848401525b50505050565b6000600282049050600182168061242557607f821691505b602082108114156124395761243861250c565b5b50919050565b6124488261257e565b810181811067ffffffffffffffff821117156124675761246661253b565b5b80604052505050565b600061247b826123a2565b91507fffffffffffffffffffffffffffffffffffffffffffffffffffffffffffffffff8214156124ae576124ad6124dd565b5b600182019050919050565b60006124c4826124cb565b9050919050565b60006124d68261258f565b9050919050565b7f4e487b7100000000000000000000000000000000000000000000000000000000600052601160045260246000fd5b7f4e487b7100000000000000000000000000000000000000000000000000000000600052602260045260246000fd5b7f4e487b7100000000000000000000000000000000000000000000000000000000600052604160045260246000fd5b600080fd5b600080fd5b600080fd5b600080fd5b6000601f19601f8301169050919050565b60008160601b9050919050565b7f53656e64657220646f6573206e6f74206861766520616374696f6e206b657900600082015250565b7f4b657920616c7265616479206578697374730000000000000000000000000000600082015250565b7f53656e64657220646f6573206e6f74206861766520636c61696d207369676e6560008201527f72206b6579000000000000000000000000000000000000000000000000000000602082015250565b7f416c726561647920657865637574656400000000000000000000000000000000600082015250565b7f53656e64657220646f6573206e6f742068617665206d616e6167656d656e742060008201527f6b65790000000000000000000000000000000000000000000000000000000000602082015250565b7f4e6f2073756368206b6579000000000000000000000000000000000000000000600082015250565b6126e78161232e565b81146126f257600080fd5b50565b6126fe81612340565b811461270957600080fd5b50565b6127158161234c565b811461272057600080fd5b50565b61272c81612356565b811461273757600080fd5b50565b612743816123a2565b811461274e57600080fd5b5056fea264697066735822122051f48bf0d25ec57de60830e66f2ce3fbc638c4ef82fec3d180467d4a8ebac4af64736f6c63430008070033",
    "linkReferences": {},
    "deployedLinkReferences": {}
}