{
    "_format": "hh-sol-artifact-1",
    "contractName": "ClaimVerifier",
    "sourceName": "contracts/ClaimVerifier.sol",
    "abi": [
        {
            "inputs": [
                {
                    "internalType": "address",
                    "name": "_trustedClaimHolder",
                    "type": "address"
                }
            ],
            "stateMutability": "nonpayable",
            "type": "constructor"
        },
        {
            "anonymous": false,
            "inputs": [
                {
                    "indexed": false,
                    "internalType": "contract ClaimHolder",
                    "name": "_identity",
                    "type": "address"
                },
                {
                    "indexed": false,
                    "internalType": "uint256",
                    "name": "claimType",
                    "type": "uint256"
                }
            ],
            "name": "ClaimInvalid",
            "type": "event"
        },
        {
            "anonymous": false,
            "inputs": [
                {
                    "indexed": false,
                    "internalType": "contract ClaimHolder",
                    "name": "_identity",
                    "type": "address"
                },
                {
                    "indexed": false,
                    "internalType": "uint256",
                    "name": "claimType",
                    "type": "uint256"
                }
            ],
            "name": "ClaimValid",
            "type": "event"
        },
        {
            "inputs": [
                {
                    "internalType": "contract ClaimHolder",
                    "name": "_identity",
                    "type": "address"
                },
                {
                    "internalType": "uint256",
                    "name": "claimType",
                    "type": "uint256"
                }
            ],
            "name": "checkClaim",
            "outputs": [
                {
                    "internalType": "bool",
                    "name": "claimValid",
                    "type": "bool"
                }
            ],
            "stateMutability": "view",
            "type": "function"
        },
        {
            "inputs": [
                {
                    "internalType": "contract ClaimHolder",
                    "name": "_identity",
                    "type": "address"
                },
                {
                    "internalType": "uint256",
                    "name": "claimType",
                    "type": "uint256"
                }
            ],
            "name": "claimIsValid",
            "outputs": [
                {
                    "internalType": "bool",
                    "name": "claimValid",
                    "type": "bool"
                }
            ],
            "stateMutability": "view",
            "type": "function"
        },
        {
            "inputs": [
                {
                    "internalType": "address",
                    "name": "_user",
                    "type": "address"
                }
            ],
            "name": "getERC725At",
            "outputs": [
                {
                    "internalType": "address[]",
                    "name": "",
                    "type": "address[]"
                }
            ],
            "stateMutability": "view",
            "type": "function"
        },
        {
            "inputs": [
                {
                    "internalType": "bytes",
                    "name": "sig",
                    "type": "bytes"
                },
                {
                    "internalType": "bytes32",
                    "name": "dataHash",
                    "type": "bytes32"
                }
            ],
            "name": "getRecoveredAddress",
            "outputs": [
                {
                    "internalType": "address",
                    "name": "addr",
                    "type": "address"
                }
            ],
            "stateMutability": "pure",
            "type": "function"
        },
        {
            "inputs": [
                {
                    "internalType": "address",
                    "name": "_user",
                    "type": "address"
                },
                {
                    "internalType": "address",
                    "name": "_profile",
                    "type": "address"
                }
            ],
            "name": "saveERC725At",
            "outputs": [],
            "stateMutability": "nonpayable",
            "type": "function"
        },
        {
            "inputs": [],
            "name": "trustedClaimHolder",
            "outputs": [
                {
                    "internalType": "contract ClaimHolder",
                    "name": "",
                    "type": "address"
                }
            ],
            "stateMutability": "view",
            "type": "function"
        }
    ],
    "bytecode": "0x60806040523480156200001157600080fd5b506040516200125838038062001258833981810160405281019062000037919062000095565b806000806101000a81548173ffffffffffffffffffffffffffffffffffffffff021916908373ffffffffffffffffffffffffffffffffffffffff160217905550506200011a565b6000815190506200008f8162000100565b92915050565b600060208284031215620000ae57620000ad620000fb565b5b6000620000be848285016200007e565b91505092915050565b6000620000d482620000db565b9050919050565b600073ffffffffffffffffffffffffffffffffffffffff82169050919050565b600080fd5b6200010b81620000c7565b81146200011757600080fd5b50565b61112e806200012a6000396000f3fe608060405234801561001057600080fd5b50600436106100625760003560e01c80630382ad2614610067578063121656301461009757806336938354146100b35780639fecd554146100d1578063c3b129e314610101578063fce1600a14610131575b600080fd5b610081600480360381019061007c91906108dc565b610161565b60405161008e9190610c4d565b60405180910390f35b6100b160048036038101906100ac9190610813565b610175565b005b6100bb610219565b6040516100c89190610cf1565b60405180910390f35b6100eb60048036038101906100e691906108dc565b61023d565b6040516100f89190610c4d565b60405180910390f35b61011b60048036038101906101169190610880565b610488565b6040516101289190610c10565b60405180910390f35b61014b600480360381019061014691906107e6565b610536565b6040516101589190610c2b565b60405180910390f35b600061016d838361023d565b905092915050565b600160008373ffffffffffffffffffffffffffffffffffffffff1673ffffffffffffffffffffffffffffffffffffffff168152602001908152602001600020819080600181540180825580915050600190039060005260206000200160009091909190916101000a81548173ffffffffffffffffffffffffffffffffffffffff021916908373ffffffffffffffffffffffffffffffffffffffff1602179055505050565b60008054906101000a900473ffffffffffffffffffffffffffffffffffffffff1681565b60008060008060608060008060009054906101000a900473ffffffffffffffffffffffffffffffffffffffff168860405160200161027c929190610bbe565b6040516020818303038152906040528051906020012090508873ffffffffffffffffffffffffffffffffffffffff1663c9100bcb826040518263ffffffff1660e01b81526004016102cd9190610c68565b60006040518083038186803b1580156102e557600080fd5b505afa1580156102f9573d6000803e3d6000fd5b505050506040513d6000823e3d601f19601f82011682018060405250810190610322919061091c565b50809650819750829850839950849a505050505050600089898460405160200161034e93929190610d0c565b6040516020818303038152906040528051906020012090506000816040516020016103799190610bea565b604051602081830303815290604052805190602001209050600061039d8683610488565b90506000816040516020016103b29190610ba3565b60405160208183030381529060405280519060200120905060008054906101000a900473ffffffffffffffffffffffffffffffffffffffff1673ffffffffffffffffffffffffffffffffffffffff1663d202158d8260036040518363ffffffff1660e01b8152600401610426929190610c83565b60206040518083038186803b15801561043e57600080fd5b505afa158015610452573d6000803e3d6000fd5b505050506040513d601f19601f820116820180604052508101906104769190610853565b9a505050505050505050505092915050565b6000604183511461049c5760009050610530565b60008060006020860151925060408601519150606086015160001a9050601b8160ff1610156104d557601b816104d29190610e31565b90505b6000600186838686604051600081526020016040526040516104fa9493929190610cac565b6020604051602081039080840390855afa15801561051c573d6000803e3d6000fd5b505050602060405103519050809450505050505b92915050565b6060600160008373ffffffffffffffffffffffffffffffffffffffff1673ffffffffffffffffffffffffffffffffffffffff1681526020019081526020016000208054806020026020016040519081016040528092919081815260200182805480156105f757602002820191906000526020600020905b8160009054906101000a900473ffffffffffffffffffffffffffffffffffffffff1673ffffffffffffffffffffffffffffffffffffffff16815260200190600101908083116105ad575b50505050509050919050565b600061061661061184610d6f565b610d4a565b9050828152602081018484840111156106325761063161102f565b5b61063d848285610f21565b509392505050565b600061065861065384610d6f565b610d4a565b9050828152602081018484840111156106745761067361102f565b5b61067f848285610f30565b509392505050565b600061069a61069584610da0565b610d4a565b9050828152602081018484840111156106b6576106b561102f565b5b6106c1848285610f30565b509392505050565b6000813590506106d881611085565b92915050565b6000815190506106ed81611085565b92915050565b6000815190506107028161109c565b92915050565b600081359050610717816110b3565b92915050565b600082601f8301126107325761073161102a565b5b8135610742848260208601610603565b91505092915050565b600082601f8301126107605761075f61102a565b5b8151610770848260208601610645565b91505092915050565b600081359050610788816110ca565b92915050565b600082601f8301126107a3576107a261102a565b5b81516107b3848260208601610687565b91505092915050565b6000813590506107cb816110e1565b92915050565b6000815190506107e0816110e1565b92915050565b6000602082840312156107fc576107fb611039565b5b600061080a848285016106c9565b91505092915050565b6000806040838503121561082a57610829611039565b5b6000610838858286016106c9565b9250506020610849858286016106c9565b9150509250929050565b60006020828403121561086957610868611039565b5b6000610877848285016106f3565b91505092915050565b6000806040838503121561089757610896611039565b5b600083013567ffffffffffffffff8111156108b5576108b4611034565b5b6108c18582860161071d565b92505060206108d285828601610708565b9150509250929050565b600080604083850312156108f3576108f2611039565b5b600061090185828601610779565b9250506020610912858286016107bc565b9150509250929050565b60008060008060008060c0878903121561093957610938611039565b5b600061094789828a016107d1565b965050602061095889828a016107d1565b955050604061096989828a016106de565b945050606087015167ffffffffffffffff81111561098a57610989611034565b5b61099689828a0161074b565b935050608087015167ffffffffffffffff8111156109b7576109b6611034565b5b6109c389828a0161074b565b92505060a087015167ffffffffffffffff8111156109e4576109e3611034565b5b6109f089828a0161078e565b9150509295509295509295565b6000610a098383610a15565b60208301905092915050565b610a1e81610e68565b82525050565b610a2d81610e68565b82525050565b610a44610a3f82610e68565b610f94565b82525050565b6000610a5582610de1565b610a5f8185610e04565b9350610a6a83610dd1565b8060005b83811015610a9b578151610a8288826109fd565b9750610a8d83610df7565b925050600181019050610a6e565b5085935050505092915050565b610ab181610e7a565b82525050565b610ac081610e86565b82525050565b610ad7610ad282610e86565b610fa6565b82525050565b6000610ae882610dec565b610af28185610e15565b9350610b02818560208601610f30565b610b0b8161103e565b840191505092915050565b610b1f81610ed9565b82525050565b610b36610b3182610ed9565b610f94565b82525050565b610b4581610eeb565b82525050565b6000610b58601c83610e26565b9150610b638261105c565b601c82019050919050565b610b7781610ec2565b82525050565b610b8e610b8982610ec2565b610fc2565b82525050565b610b9d81610ecc565b82525050565b6000610baf8284610a33565b60148201915081905092915050565b6000610bca8285610b25565b601482019150610bda8284610b7d565b6020820191508190509392505050565b6000610bf582610b4b565b9150610c018284610ac6565b60208201915081905092915050565b6000602082019050610c256000830184610a24565b92915050565b60006020820190508181036000830152610c458184610a4a565b905092915050565b6000602082019050610c626000830184610aa8565b92915050565b6000602082019050610c7d6000830184610ab7565b92915050565b6000604082019050610c986000830185610ab7565b610ca56020830184610b3c565b9392505050565b6000608082019050610cc16000830187610ab7565b610cce6020830186610b94565b610cdb6040830185610ab7565b610ce86060830184610ab7565b95945050505050565b6000602082019050610d066000830184610b16565b92915050565b6000606082019050610d216000830186610b16565b610d2e6020830185610b6e565b8181036040830152610d408184610add565b9050949350505050565b6000610d54610d65565b9050610d608282610f63565b919050565b6000604051905090565b600067ffffffffffffffff821115610d8a57610d89610ffb565b5b610d938261103e565b9050602081019050919050565b600067ffffffffffffffff821115610dbb57610dba610ffb565b5b610dc48261103e565b9050602081019050919050565b6000819050602082019050919050565b600081519050919050565b600081519050919050565b6000602082019050919050565b600082825260208201905092915050565b600082825260208201905092915050565b600081905092915050565b6000610e3c82610ecc565b9150610e4783610ecc565b92508260ff03821115610e5d57610e5c610fcc565b5b828201905092915050565b6000610e7382610ea2565b9050919050565b60008115159050919050565b6000819050919050565b6000610e9b82610e68565b9050919050565b600073ffffffffffffffffffffffffffffffffffffffff82169050919050565b6000819050919050565b600060ff82169050919050565b6000610ee482610efd565b9050919050565b6000610ef682610ec2565b9050919050565b6000610f0882610f0f565b9050919050565b6000610f1a82610ea2565b9050919050565b82818337600083830152505050565b60005b83811015610f4e578082015181840152602081019050610f33565b83811115610f5d576000848401525b50505050565b610f6c8261103e565b810181811067ffffffffffffffff82111715610f8b57610f8a610ffb565b5b80604052505050565b6000610f9f82610fb0565b9050919050565b6000819050919050565b6000610fbb8261104f565b9050919050565b6000819050919050565b7f4e487b7100000000000000000000000000000000000000000000000000000000600052601160045260246000fd5b7f4e487b7100000000000000000000000000000000000000000000000000000000600052604160045260246000fd5b600080fd5b600080fd5b600080fd5b600080fd5b6000601f19601f8301169050919050565b60008160601b9050919050565b7f19457468657265756d205369676e6564204d6573736167653a0a333200000000600082015250565b61108e81610e68565b811461109957600080fd5b50565b6110a581610e7a565b81146110b057600080fd5b50565b6110bc81610e86565b81146110c757600080fd5b50565b6110d381610e90565b81146110de57600080fd5b50565b6110ea81610ec2565b81146110f557600080fd5b5056fea2646970667358221220db9559e66dbbaa780dee02bc5a3cc16c370756fbcf4fcf5167ce407cc4bb113564736f6c63430008070033",
    "linkReferences": {},
    "deployedLinkReferences": {}
}